{
  "_format": "hh-sol-artifact-1",
  "contractName": "CampaignsData",
  "sourceName": "contracts/campaign.sol",
  "abi": [
    {
      "anonymous": false,
      "inputs": [
        {
          "indexed": false,
          "internalType": "string",
          "name": "title",
          "type": "string"
        },
        {
          "indexed": false,
          "internalType": "uint256",
          "name": "requiredAmount",
          "type": "uint256"
        },
        {
          "indexed": true,
          "internalType": "address",
          "name": "owner",
          "type": "address"
        },
        {
          "indexed": false,
          "internalType": "address",
          "name": "campaignAddress",
          "type": "address"
        },
        {
          "indexed": false,
          "internalType": "string",
          "name": "Imageurl",
          "type": "string"
        },
        {
          "indexed": false,
          "internalType": "string",
          "name": "Storyurl",
          "type": "string"
        },
        {
          "indexed": true,
          "internalType": "uint256",
          "name": "timestamps",
          "type": "uint256"
        },
        {
          "indexed": true,
          "internalType": "string",
          "name": "categoryOfCampaign",
          "type": "string"
        }
      ],
      "name": "campaignCreated",
      "type": "event"
    },
    {
      "inputs": [
        {
          "internalType": "string",
          "name": "campaignTitle",
          "type": "string"
        },
        {
          "internalType": "uint256",
          "name": "requiredCampaignAmount",
          "type": "uint256"
        },
        {
          "internalType": "string",
          "name": "ImageUrl",
          "type": "string"
        },
        {
          "internalType": "string",
          "name": "cateogory",
          "type": "string"
        },
        {
          "internalType": "string",
          "name": "storyUrl",
          "type": "string"
        }
      ],
      "name": "CreateCampaign",
      "outputs": [],
      "stateMutability": "nonpayable",
      "type": "function"
    },
    {
      "inputs": [
        {
          "internalType": "uint256",
          "name": "",
          "type": "uint256"
        }
      ],
      "name": "depolyedCapmaigns",
      "outputs": [
        {
          "internalType": "address",
          "name": "",
          "type": "address"
        }
      ],
      "stateMutability": "view",
      "type": "function"
    }
  ],
  "bytecode": "0x608060405234801561001057600080fd5b50611333806100206000396000f3fe60806040523480156200001157600080fd5b50600436106200003a5760003560e01c806325e1db4d146200003f57806330b99a251462000075575b600080fd5b6200005d600480360381019062000057919062000251565b62000095565b6040516200006c9190620002c8565b60405180910390f35b6200009360048036038101906200008d919062000447565b620000d5565b005b60008181548110620000a657600080fd5b906000526020600020016000915054906101000a900473ffffffffffffffffffffffffffffffffffffffff1681565b600085858584604051620000e990620001f4565b620000f89493929190620005ef565b604051809103906000f08015801562000115573d6000803e3d6000fd5b5090506000819080600181540180825580915050600190039060005260206000200160009091909190916101000a81548173ffffffffffffffffffffffffffffffffffffffff021916908373ffffffffffffffffffffffffffffffffffffffff160217905550826040516200018b919062000693565b6040518091039020423373ffffffffffffffffffffffffffffffffffffffff167f8c19c3254560e386bca91176db8f76ece4d35af1afca17e1d77745d9e3f081018989868a89604051620001e4959493929190620006ac565b60405180910390a4505050505050565b610bdf806200071f83390190565b6000604051905090565b600080fd5b600080fd5b6000819050919050565b6200022b8162000216565b81146200023757600080fd5b50565b6000813590506200024b8162000220565b92915050565b6000602082840312156200026a57620002696200020c565b5b60006200027a848285016200023a565b91505092915050565b600073ffffffffffffffffffffffffffffffffffffffff82169050919050565b6000620002b08262000283565b9050919050565b620002c281620002a3565b82525050565b6000602082019050620002df6000830184620002b7565b92915050565b600080fd5b600080fd5b6000601f19601f8301169050919050565b7f4e487b7100000000000000000000000000000000000000000000000000000000600052604160045260246000fd5b6200033a82620002ef565b810181811067ffffffffffffffff821117156200035c576200035b62000300565b5b80604052505050565b60006200037162000202565b90506200037f82826200032f565b919050565b600067ffffffffffffffff821115620003a257620003a162000300565b5b620003ad82620002ef565b9050602081019050919050565b82818337600083830152505050565b6000620003e0620003da8462000384565b62000365565b905082815260208101848484011115620003ff57620003fe620002ea565b5b6200040c848285620003ba565b509392505050565b600082601f8301126200042c576200042b620002e5565b5b81356200043e848260208601620003c9565b91505092915050565b600080600080600060a086880312156200046657620004656200020c565b5b600086013567ffffffffffffffff81111562000487576200048662000211565b5b620004958882890162000414565b9550506020620004a8888289016200023a565b945050604086013567ffffffffffffffff811115620004cc57620004cb62000211565b5b620004da8882890162000414565b935050606086013567ffffffffffffffff811115620004fe57620004fd62000211565b5b6200050c8882890162000414565b925050608086013567ffffffffffffffff81111562000530576200052f62000211565b5b6200053e8882890162000414565b9150509295509295909350565b600081519050919050565b600082825260208201905092915050565b60005b83811015620005875780820151818401526020810190506200056a565b8381111562000597576000848401525b50505050565b6000620005aa826200054b565b620005b6818562000556565b9350620005c881856020860162000567565b620005d381620002ef565b840191505092915050565b620005e98162000216565b82525050565b600060808201905081810360008301526200060b81876200059d565b90506200061c6020830186620005de565b81810360408301526200063081856200059d565b905081810360608301526200064681846200059d565b905095945050505050565b600081905092915050565b600062000669826200054b565b62000675818562000651565b93506200068781856020860162000567565b80840191505092915050565b6000620006a182846200065c565b915081905092915050565b600060a0820190508181036000830152620006c881886200059d565b9050620006d96020830187620005de565b620006e86040830186620002b7565b8181036060830152620006fc81856200059d565b905081810360808301526200071281846200059d565b9050969550505050505056fe60806040523480156200001157600080fd5b5060405162000bdf38038062000bdf83398181016040528101906200003791906200035c565b83600090805190602001906200004f929190620000d4565b508260018190555081600390805190602001906200006f929190620000d4565b50806004908051906020019062000088929190620000d4565b5033600560006101000a81548173ffffffffffffffffffffffffffffffffffffffff021916908373ffffffffffffffffffffffffffffffffffffffff1602179055505050505062000490565b828054620000e2906200045a565b90600052602060002090601f01602090048101928262000106576000855562000152565b82601f106200012157805160ff191683800117855562000152565b8280016001018555821562000152579182015b828111156200015157825182559160200191906001019062000134565b5b50905062000161919062000165565b5090565b5b808211156200018057600081600090555060010162000166565b5090565b6000604051905090565b600080fd5b600080fd5b600080fd5b600080fd5b6000601f19601f8301169050919050565b7f4e487b7100000000000000000000000000000000000000000000000000000000600052604160045260246000fd5b620001ed82620001a2565b810181811067ffffffffffffffff821117156200020f576200020e620001b3565b5b80604052505050565b60006200022462000184565b9050620002328282620001e2565b919050565b600067ffffffffffffffff821115620002555762000254620001b3565b5b6200026082620001a2565b9050602081019050919050565b60005b838110156200028d57808201518184015260208101905062000270565b838111156200029d576000848401525b50505050565b6000620002ba620002b48462000237565b62000218565b905082815260208101848484011115620002d957620002d86200019d565b5b620002e68482856200026d565b509392505050565b600082601f83011262000306576200030562000198565b5b815162000318848260208601620002a3565b91505092915050565b6000819050919050565b620003368162000321565b81146200034257600080fd5b50565b60008151905062000356816200032b565b92915050565b600080600080608085870312156200037957620003786200018e565b5b600085015167ffffffffffffffff8111156200039a576200039962000193565b5b620003a887828801620002ee565b9450506020620003bb8782880162000345565b935050604085015167ffffffffffffffff811115620003df57620003de62000193565b5b620003ed87828801620002ee565b925050606085015167ffffffffffffffff81111562000411576200041062000193565b5b6200041f87828801620002ee565b91505092959194509250565b7f4e487b7100000000000000000000000000000000000000000000000000000000600052602260045260246000fd5b600060028204905060018216806200047357607f821691505b602082108114156200048a57620004896200042b565b5b50919050565b61073f80620004a06000396000f3fe6080604052600436106100705760003560e01c8063b4a99a4e1161004e578063b4a99a4e146100d5578063b529ef9614610100578063cdff42bf1461012b578063f3ccaac01461015657610070565b80634a79d50c14610075578063965044d5146100a05780639d7afdf3146100aa575b600080fd5b34801561008157600080fd5b5061008a610181565b6040516100979190610505565b60405180910390f35b6100a861020f565b005b3480156100b657600080fd5b506100bf61031e565b6040516100cc9190610505565b60405180910390f35b3480156100e157600080fd5b506100ea6103ac565b6040516100f79190610568565b60405180910390f35b34801561010c57600080fd5b506101156103d2565b604051610122919061059c565b60405180910390f35b34801561013757600080fd5b506101406103d8565b60405161014d919061059c565b60405180910390f35b34801561016257600080fd5b5061016b6103de565b6040516101789190610505565b60405180910390f35b6000805461018e906105e6565b80601f01602080910402602001604051908101604052809291908181526020018280546101ba906105e6565b80156102075780601f106101dc57610100808354040283529160200191610207565b820191906000526020600020905b8154815290600101906020018083116101ea57829003601f168201915b505050505081565b60025460015411610255576040517f08c379a000000000000000000000000000000000000000000000000000000000815260040161024c90610664565b60405180910390fd5b600560009054906101000a900473ffffffffffffffffffffffffffffffffffffffff1673ffffffffffffffffffffffffffffffffffffffff166108fc349081150290604051600060405180830381858888f193505050501580156102bd573d6000803e3d6000fd5b5034600260008282546102d091906106b3565b9250508190555042343373ffffffffffffffffffffffffffffffffffffffff167fe6add99d06d9ad7fc456e746aa162eed6211c5002ef2dacdd67b8d2016822fba60405160405180910390a4565b6004805461032b906105e6565b80601f0160208091040260200160405190810160405280929190818152602001828054610357906105e6565b80156103a45780601f10610379576101008083540402835291602001916103a4565b820191906000526020600020905b81548152906001019060200180831161038757829003601f168201915b505050505081565b600560009054906101000a900473ffffffffffffffffffffffffffffffffffffffff1681565b60015481565b60025481565b600380546103eb906105e6565b80601f0160208091040260200160405190810160405280929190818152602001828054610417906105e6565b80156104645780601f1061043957610100808354040283529160200191610464565b820191906000526020600020905b81548152906001019060200180831161044757829003601f168201915b505050505081565b600081519050919050565b600082825260208201905092915050565b60005b838110156104a657808201518184015260208101905061048b565b838111156104b5576000848401525b50505050565b6000601f19601f8301169050919050565b60006104d78261046c565b6104e18185610477565b93506104f1818560208601610488565b6104fa816104bb565b840191505092915050565b6000602082019050818103600083015261051f81846104cc565b905092915050565b600073ffffffffffffffffffffffffffffffffffffffff82169050919050565b600061055282610527565b9050919050565b61056281610547565b82525050565b600060208201905061057d6000830184610559565b92915050565b6000819050919050565b61059681610583565b82525050565b60006020820190506105b1600083018461058d565b92915050565b7f4e487b7100000000000000000000000000000000000000000000000000000000600052602260045260246000fd5b600060028204905060018216806105fe57607f821691505b60208210811415610612576106116105b7565b5b50919050565b7f546f74616c416d6f756e7420686173206265656e20636f6c6c65637465640000600082015250565b600061064e601e83610477565b915061065982610618565b602082019050919050565b6000602082019050818103600083015261067d81610641565b9050919050565b7f4e487b7100000000000000000000000000000000000000000000000000000000600052601160045260246000fd5b60006106be82610583565b91506106c983610583565b9250827fffffffffffffffffffffffffffffffffffffffffffffffffffffffffffffffff038211156106fe576106fd610684565b5b82820190509291505056fea2646970667358221220cf553d5b7b47ca98330688ab635808ef34dc3bc9bd03b110ec8aabc7ed7740b064736f6c634300080a0033a26469706673582212202de8db20df2b5a3849a36e142e912b758e042ca2d0de908cf83c707a89a81bae64736f6c634300080a0033",
  "linkReferences": {},
  "deployedLinkReferences": {}
}